:020000040800F2
:10000000480B002005210008810200088302000837
:10001000870200088B0200088F0200080000000021
:100020000000000000000000000000009302000833
:1000300095020008000000009702000899020008DD
:100040001F2100081F2100081F2100081F21000890
:100050001F2100081F2100081F21000881750008CA
:100060001F2100081F2100081F2100081F21000870
:100070001F2100081F2100081F2100081F21000860
:100080001F2100081F2100081F2100081F21000850
:100090001F2100081F2100081F2100081F21000840
:1000A0001F2100081F2100081F2100081F21000830
:1000B0000517000821110008731500081F2100080A
:1000C0001F2100081F2100081F2100081F21000810
:1000D0001F210008812000081F2100081F2100089F
:1000E0001F2100081F2100081F2100081F210008F0
:1000F0001F2100081F2100081F2100081F210008E0
:100100001F2100081F2100081F2100081F210008CF
:100110001F2100081F2100081F2100081F210008BF
:100120001F2100081F2100081F2100081F210008AF
:100130001F2100081F2100081F2100081F2100089F
:100140001F2100081F2100081F2100081F2100088F
:100150001F2100081F2100081F2100081F2100087F
:100160001F2100081F2100081F2100081F2100086F
:100170001F2100081F2100081F2100081F2100085F
:100180001F2100081F21000800F002F800F064F8A9
:100190000AA090E8000C82448344AAF10107DA45E2
:1001A00001D100F059F8AFF2090EBAE80F0013F0D0
:1001B000010F18BFFB1A43F001031847FC9D000014
:1001C0001C9E00000A444FF0000C10F8013B13F095
:1001D000070408BF10F8014B1D1108BF10F8015BA0
:1001E000641E05D010F8016B641E01F8016BF9D193
:1001F00013F0080F1EBF10F8014BAD1C0C1B09D1EA
:100200006D1E58BF01F801CBFAD505E014F8016B5B
:1002100001F8016B6D1EF9D59142D6D370470000ED
:100220000023002400250026103A28BF78C1FBD8FF
:10023000520728BF30C148BF0B607047642907F0E0
:100240000582782907F03E82002070471FB508F02C
:10025000C8FF1FBD10B510BD07F090FC1146FFF799
:10026000F5FF00F008F807F0AEFC03B4FFF7F2FF6B
:1002700003BC01F0A5FE10B501F0A4FA002010BDEA
:10028000704700BFFEE700BFFEE700BFFEE700BF0C
:10029000FEE7704770477047704700000CB50020BC
:1002A000019000907648006840F4803074490860FE
:1002B00000BF7348006800F4003000900198401CB3
:1002C0000190009818B90198B0F5A04FF1D16C4891
:1002D000006800F4003010B10120009001E000201F
:1002E00000900098012846D165484030006840F0F1
:1002F00080506349403108606248006840F44040E3
:10030000604908605E48083000685D49083108604F
:100310000846006840F4004008600846006840F461
:10032000A05008605848091F0860081F006840F086
:100330008070091F086000BF5148006800F000701D
:100340000028F9D040F20570504908604C48083048
:10035000006820F003004A49083108600846006838
:1003600040F00200086000BF45480830006800F017
:100370000C000828F8D10CBD10B54548006840F4C1
:100380007000434908603E48006840F001003C4965
:10039000086000203A4908310860394800683D4942
:1003A0000840374908603C48091D0860081F00687C
:1003B00020F48020091F0860002031490C310860BA
:1003C000FFF76CFF4FF0006031498039086010BDC5
:1003D00070B500200022022300240221284D083598
:1003E0002D6805F00C0020B1042806D0082834D16F
:1003F00007E02A4D2A4E356033E02A4D284E3560FD
:100400002FE01F4D2D1D2D68C5F380541C4D2D1D53
:100410002D6805F03F0154B1224DB5FBF1F5184EA2
:10042000361D3668C6F3881605FB06F209E01B4D3B
:10043000B5FBF1F5124E361D3668C6F3881605FB7E
:1004400006F20F4D2D1D2D68C5F301456D1C6B0087
:10045000B2FBF3F5124E356003E0104D104E3560DF
:1004600000BF00BF064D08352D68C5F303150E4EBD
:10047000705D0B4D2D68C540094E356070BD0000A4
:10048000003802400070004008544007003C024021
:1004900088ED00E0FFFFF6FE103000240024F40099
:1004A0000000002000127A000400002010B500F0C7
:1004B000A7FF40F6C41001F063FD21214FF6FF7045
:1004C00000F0F3FF4FF40051F94801F0AFFF4FF493
:1004D0000041F74801F0AAFF10BD10B5044694EDA5
:1004E000000ADFEDF40AB4EEE00AF1EE10FA08DCDF
:1004F00094ED000ADFEDF00AB4EEE00AF1EE10FA36
:100500000CD24FF40051EA4801F08EFF4FF4004145
:10051000E74801F089FF0120E8490860E7480068E2
:10052000012820D19FEDE60AE64880ED030A9FED01
:10053000E40AE54880ED030A9FEDE10AE34880ED17
:10054000000A9FEDDF0AE24880ED000A4FF40051F7
:10055000D74801F069FF4FF40041D54801F064FF2E
:100560000120DC490860DC4890ED000ADFEDD10A8B
:10057000B4EEE00AF1EE10FA1AD390ED020ADFEDC4
:10058000CD0AB4EEE00AF1EE10FA11D390ED040AB0
:10059000DFEDC80AB4EEE00AF1EE10FA08D390EDF0
:1005A000060ADFEDC40AB4EEE00AF1EE10FA28D232
:1005B000C94890ED000AF3EE040AB4EEE00AF1EE49
:1005C00010FA1ADC90ED020AF3EE040AB4EEE00A27
:1005D000F1EE10FA11D390ED040AF3EE040AB4EE32
:1005E000E00AF1EE10FA08D390ED060AF3EE040AE1
:1005F000B4EEE00AF1EE10FA03D26FF03100B74921
:10060000C86010BDB649D1ED001A9FEDB62A71EE53
:10061000821A70EE611AB0EE611AAA49D1ED031A7E
:1006200071EE811AC1ED031AD1ED031A9FEDAE2AC6
:10063000F4EEC21AF1EE10FA04DDDFEDAB1AC1EDF3
:10064000031A0DE09F49D1ED031A9FEDA82AF4EE9D
:10065000C21AF1EE10FA03D2DFEDA41AC1ED031AAB
:10066000DFEDA31A61EE211A964991ED032ADFED21
:10067000A12A42EE821A9FEDA02A42EE201AFDEE38
:10068000E11A11EE900A7047F0B502460B460024BD
:10069000012108E0994D35F811604D1E974F27F85C
:1006A00015604D1CE9B20A29F4DBD5182DB2934E22
:1006B0007582002105E0914D35F911502C444D1CF7
:1006C000E9B20A29F7DB0A2594FBF5F528B2F0BD5B
:1006D00030B504460D46814890ED030AB8EEC00AD5
:1006E0008748D0ED000A30EE200A80ED000A7B48F2
:1006F0004079012806D1824890ED000A814880EDBA
:10070000000A10E07548407940B97D4890ED000A34
:10071000B1EE400A7B4880ED000A04E09FED680AD4
:10072000784880ED000A29462046FFF7ADFF00EE2D
:10073000100AB8EEC00A744880ED000A734890EDC4
:10074000000ADFED730A20EE200A80ED000A90ED2A
:10075000000A6D48D0ED000A9FED621A00EE810A92
:100760006A4880ED000A6B4890ED000A6748D0EDBA
:10077000000A30EE200A674880ED000A90ED000A7A
:100780006048D0ED000A30EE200A624880ED000A91
:1007900090ED000ADFED600AB4EEE00AF1EE10FA27
:1007A00003DD9FED5D0A80ED000A5A4890ED000AD6
:1007B000DFED5A0AB4EEE00AF1EE10FA03D29FED33
:1007C000570A80ED000A514890ED000ADFED540A07
:1007D00060EE200A9FED531A80EE810A4D48D0ED5D
:1007E000000A9FED511A60EE810A9FED4E1AC0EE8D
:1007F000811A30EE210A4D4880ED000A90ED000A82
:10080000BDEEC00A10EE100A30BD0146002901DA23
:10081000484200E00846704700B502460B4644488F
:10082000007818B14248007801283FD1414890ED46
:10083000000AF7EE000A30EE200A80ED000AF7EE1B
:10084000000AB4EE600AF1EE10FA09D1D018FFF7F1
:10085000DCFF00EE100AB8EEC00A374880ED000A4F
:10086000354890ED000ADFED350A80EE801A3448F5
:1008700080ED001A90ED000AF0EE000AB4EEE00AF6
:10088000F1EE10FA03D2B0EE000A80ED000A2C4817
:1008900090ED000AF3EE040AB4EEE00AF1EE10FA6D
:1008A0005FDDB3EE040A80ED000A5AE04AE0000082
:1008B000000C024000004842000048C22000002016
:1008C00000000000B000002094000020F400002090
:1008D000F800002014000020A8020020D802002008
:1008E000E80000209A99993E00E02B4600E02BC6D4
:1008F00031A845C30AD7ABC00E2DB2BD940200206B
:1009000058000020540000204C000020500000201F
:100910003333333F440000200000FA460000FAC69B
:10092000D23593BC0000C8429C5088B948000020D2
:1009300074000020680000206C000020000061446A
:1009400064000020B1EE080AE94880ED000A1FEDBE
:10095000240AE84880ED000A1FED270AE64880EDEA
:10096000000AE648007858B9E54890ED000AE048EA
:10097000D0ED000A30EE200AE14880ED000A14E0D4
:10098000DE48007801280BD1DD4890ED000AD848F8
:10099000D0ED000A30EE600AD94880ED000A04E08C
:1009A0001FED390AD64880ED000AD54890ED000ABF
:1009B000D448D0ED000AB4EEE00AF1EE10FA04DDFE
:1009C00090ED000ACE4880ED000ACD4890ED000A77
:1009D000CC48D0ED000AF1EE600AB4EEE00AF1EE88
:1009E00010FA06D290ED000AB1EE400AC44880ED3C
:1009F000000AC34890ED000ABDEEC00A10EE100ACE
:100A000000BD10B504462046FFF7FFFEBE4991FB2E
:100A1000F0F3B3F5803F02D34FF6FF7200E09AB2D5
:100A2000104610BD70B505460C46002D05DD4FF48F
:100A30008071B64801F0FAFC04E04FF48071B348CD
:100A400001F0F2FC002C05DD4FF40061AF4801F02D
:100A5000EBFC04E04FF40061AC4801F0E7FC2846F1
:100A6000FFF7CFFF00EE100AB8EE400AA84880ED6D
:100A7000000A2046FFF7C5FF00EE100AB8EE400A54
:100A8000A44880ED000A70BD42F6F82000EE100A7E
:100A9000404200EE900AA04890ED001AF8EEE01AED
:100AA000B4EEE11AF1EE10FA03D2B8EEE01A80EDDE
:100AB000001A994890ED001AF8EEC01AB4EEE11A47
:100AC000F1EE10FA03DDB8EEC01A80ED001A93487B
:100AD00090ED001AF8EEE01AB4EEE11AF1EE10FA19
:100AE00003D2B8EEE01A80ED001A8C4890ED001A9F
:100AF000F8EEC01AB4EEE11AF1EE10FA03DDB8EE2A
:100B0000C01A80ED001A704710B52DED108B4421EE
:100B1000D02003F035FC04464321D02003F030FC04
:100B200004EB002000EE100AB8EEC00AB0EE408AD6
:100B30004821D02003F024FC04464721D02003F0B4
:100B40001FFC04EB002000EE100AB8EEC00AB0EE65
:100B500040FA3E21D02003F013FC04463D21D02072
:100B600003F00EFC04EB002000EE100AB8EEC00A01
:100B7000B0EE409A4021D02003F002FC04463F2111
:100B8000D02003F0FDFB04EB002000EE100AB8EECD
:100B9000C00AF0EE408A9FED620AB4EEC08AF1EE20
:100BA00010FA05DD9FED5F0A38EE400AB0EE408A8C
:100BB0009FED5B0AB4EEC0FAF1EE10FA05DD9FED91
:100BC000590A3FEE400AB0EE40FA9FED550AB4EEE6
:100BD000C09AF1EE10FA05DD9FED520A39EE400A97
:100BE000B0EE409A9FED4E0AF4EEC08AF1EE10FA94
:100BF00005DD9FED4C0A38EEC00AF0EE408A18EE93
:100C0000900A08F07DFA41EC1D0B19EE100A08F06D
:100C100077FA41EC1E0BB0EE4D1AF0EE6D1AB0EE05
:100C20004E0AF0EE6E0A07F00BFBB0EE40CAF0EE93
:100C300060CA9FED3D0B53EC102B51EC1C0B07F0E1
:100C40009FFF41EC1B0B9FED3A0B53EC102B07F071
:100C5000EBFD41EC1A0B07F001FD09EE900ABDEE29
:100C6000C80A10EE100A00B2334908829FED330A19
:100C7000C8EE000AB0EE608AF0EE480AB0EE690AEB
:100C800000F0B8FF2E4890ED000A2B4880ED010AD5
:100C90002C48C0ED008ABDEC108B10BD00B503469A
:100CA0000A462948407A10BB1846FFF7AEFD642873
:100CB0000ADA1046FFF7A9FD642805DA2348006820
:100CC000401C2249086002E00020204908601F48BB
:100CD0000068B0F5967F0ADD1D4890ED000ABDEE74
:100CE000C00A194880ED030A01201749487200BD67
:100CF00064000020680000206C00002074000020C8
:100D0000600000205C000020082E0600000C02405D
:100D1000F4000020F8000020180000201C00002033
:100D2000000000470000804700000000008066408F
:100D3000F1D4C853FB210940B00300203333834171
:100D40001C010020F0000020D802002070000020CC
:100D5000E80000201CB50121082002F04DFE012012
:100D60008DF8040000208DF806000120009002207C
:100D70008DF8070003208DF805006946474801F00B
:100D8000D7FA022000906946444801F0D1FA0420C5
:100D900000906946414801F0CBFA0820009069466E
:100DA0003E4801F0C5FA4FF6FF7140F2A31000F083
:100DB0008AF81CBD10B50121384801F037FB02212B
:100DC000364801F033FB0421344801F02FFB0821A1
:100DD000324801F02BFB052001F08AF801212F4851
:100DE00001F022FB02212D4801F01EFB04212B48BB
:100DF00001F01AFB0821294801F016FB142001F02C
:100E000077F80121254801F011FB0221234801F068
:100E10000DFB0421214801F009FB08211F4801F0C6
:100E200005FB00F0D8F810BD90ED000AB5EEC00A41
:100E3000F1EE10FA0CD390ED000AD0ED010A30EE7D
:100E4000600AF2EE040AB4EEE00AF1EE10FA0ADDEE
:100E500090ED000AB5EEC00AF1EE10FA03D090ED65
:100E6000010A80ED000A704710B50D4BA3F108028E
:100E7000A2F10801A1F1080000F0DAF808481838DA
:100E8000FFF7D2FF06481038FFF7CEFF04480838B6
:100E9000FFF7CAFF0248FFF7C7FF10BD000C024072
:100EA000C002002008B51D208DF8000001208DF83B
:100EB000030002208DF8010000208DF80200684632
:100EC00001F045F908BD30B589B004460D46FFF77D
:100ED000E9FF0121022002F08FFD0121022002F032
:100EE000D4FD02208DF8140000208DF8160010208B
:100EF000049002208DF8170003208DF8150004A936
:100F0000F74801F015FA02220421F54801F09BFA96
:100F10002020049004A9F24801F00AFA02220521D7
:100F2000EF4801F090FA0120049004A9EC4801F088
:100F3000FFF902220021EA4801F085FA022004901C
:100F400004A9E74801F0F4F902220121E44801F084
:100F50007AFA0020ADF82000ADF81A000795ADF838
:100F600018408DF8220006A9DE4801F07CFD002023
:100F7000ADF80400ADF80C00ADF80600ADF80A00BD
:100F80000120ADF8080001A9D64802F043F9042079
:100F9000ADF8040001A9D34802F03CF90820ADF8EF
:100FA000040001A9CF4802F035F90C20ADF8040087
:100FB00001A9CC4802F02EF91F21CA4802F008FA14
:100FC00001221F21C74802F0EFF90021C54801F0B6
:100FD000D3FD09B030BD10B50020C3490873487374
:100FE0008873C8738880C880088148810860BD49BB
:100FF00024310860BB4934310860091D0860091DAF
:101000000860091D08600021B64801F0D0FF0021EA
:10101000B44801F0DEFF0021B24801F0F4FF0021E6
:10102000B04802F00AF80121AE4801F0A5FD10BD5C
:101030002DE9F04104460D4616461F460021A948F9
:1010400001F09AFDA848007B032812D1A6488088A9
:1010500040F2AE6188420CDAA348808800EE100AA4
:10106000B8EE400ADFEDA10A20EE200A84ED000A66
:1010700003E0BFEE000A84ED000A9B48407B032892
:1010800012D19948C08840F2AE6188420CDA964885
:10109000C08800EE100AB8EE400ADFED940A20EE98
:1010A000200A85ED000A03E0BFEE000A85ED000A84
:1010B0008D48807B032812D18B48008940F2AE61B5
:1010C00088420CDA8848008900EE100AB8EE400A1F
:1010D000DFED860A20EE200A86ED000A03E0BFEE6F
:1010E000000A86ED000A8048C07B032812D17E48A2
:1010F000408940F2AE6188420CDA7B48408900EEBC
:10110000100AB8EE400ADFED790A20EE200A87EDDA
:10111000000A03E0BFEE000A87ED000ABDE8F08197
:1011200010B501216F4802F056F948B16E480068C9
:10113000401C6D49086001216A4802F05DF9CEE06B
:101140000221684802F047F970B36748007B58B93C
:101150000221644801F02BFF624834300068624984
:101160008880012008731AE05F48007B012816D1AF
:1011700000215C4801F01BFF5B48006850B95948EA
:101180003430006858498988401A574988800320BC
:10119000087304E000205449888004200873022169
:1011A000504802F029F99AE004214E4802F013F960
:1011B00070B34D48407B58B902214A4801F009FFFD
:1011C0004848383000684849C880012048731AE010
:1011D0004548407B012816D10021424801F0F9FE24
:1011E0004148006850B93F48383000683E49C988D6
:1011F000401A3D49C8800320487304E000203A4962
:10120000C880042048730421364802F0F5F866E0EF
:101210000821344802F0DFF870B33348807B58B9B6
:101220000221304801F0EFFE2E483C3000682E4984
:101230000881012088731AE02B48807B012816D191
:101240000021284801F0DFFE2748006850B92548F2
:101250003C30006824490989401A23490881032049
:10126000887304E000202049088104208873082145
:101270001C4802F0C1F832E010211A4802F0ABF825
:1012800068B31948C07B58B90221164801F0D5FE51
:10129000144840300068144948810120C8731AE09E
:1012A0001148C07B012816D100210E4801F0C5FE6F
:1012B0000D48006850B90B48403000680A49498918
:1012C000401A094948810320C87304E000200649F8
:1012D00048810420C8731021024802F08DF810BD27
:1012E0000004024000040040C80200206A4DB33EE2
:1012F0001CB50121084602F07FFB00208DF8040098
:101300008DF8070003208DF8050001200090694644
:10131000384801F00DF8022000906946354801F088
:1013200007F8042000906946324801F001F80820CF
:10133000009069462F4800F0FBFF1CBD10B52DED55
:10134000028BB0EE408A01212A4801F053F82A4965
:1013500008710221274801F04DF8274948710421FE
:10136000244801F047F8244988710821214801F0F8
:1013700041F82149C8710846007900EB8000C0009F
:10138000497901EB810100EB41001B498979494210
:1013900001EB810100EB41001749C979494201EB9A
:1013A000810100EBC10015490860084600680A3059
:1013B00018B108460068283018B900200E49087096
:1013C00015E00E4800680A2803D00C480068282859
:1013D00003D101200849087009E00848006818B9DD
:1013E00002200549087002E0022003490870BDECA4
:1013F000028B10BD00000240740000207C00002021
:101400001CB50121082002F0F7FA01208DF8040034
:1014100000208DF806004FF48070009001208DF8B8
:10142000070003208DF805006946164800F080FF8C
:101430004FF4006000906946124800F079FF4FF4C5
:101440000050009069460F4800F072FF4FF40040D2
:10145000009069460B4800F06BFF4FF4807109481B
:1014600000F0E2FF4FF40061064800F0DFFF4FF4A8
:101470000051044800F0D8FF4FF40041014800F04B
:10148000D3FF1CBD000C024008B51E208DF80000E3
:1014900001208DF8010000208DF8020001208DF858
:1014A0000300684600F053FE08BD30B58BB005461A
:1014B0000C460121082002F09FFA0121042002F0CD
:1014C000E4FA02220C214E4800F0BDFF02220E2158
:1014D0004B4800F0B8FF02208DF8280000208DF85E
:1014E0002A004FF48050099000208DF82B00022034
:1014F0008DF8290009A9424800F01AFF4FF48040F6
:10150000099009A93E4800F013FF0795A0B2ADF875
:1015100018000020ADF82000ADF81A0006A93948DF
:1015200001F0A1FA3020ADF804000120ADF806006A
:1015300000200390ADF8100001A9324801F028FB0B
:1015400001A9304801F0AAFBFFF79EFF00212D48BA
:1015500001F0ABFC00212B4801F0BDFC01220A2167
:10156000284801F021FF0121264801F005FB0BB0BE
:1015700030BD10B52DED028B0121224801F02BFF6B
:1015800018B101211F4801F037FF02211D4801F069
:1015900022FFB0B11B4801F0BBFE00EE100AB8EE0E
:1015A000408A194890ED000A38EE000ABCEEC00AE5
:1015B00010EE101A134801F044FC0221114801F00A
:1015C0001BFF08210F4801F006FFB0B10D4801F0E4
:1015D000A5FE00EE100AF8EE408A0C4890ED000AD5
:1015E00038EE800ABCEEC00A10EE101A054801F071
:1015F0002CFC0821034801F0FFFEBDEC028B10BD5E
:10160000000C024000080040F4000020F800002018
:101610000120704702207047032070470420704764
:10162000052070471FB50121084602F02EFA40F24E
:10163000E7300290A720ADF804000020ADF80600C6
:10164000ADF80C008DF80E0001A94FF0804001F0BC
:101650000AFA1C208DF8000001208DF803000020FC
:101660008DF801008DF80200684600F070FD01223F
:101670001146900701F098FE0121880701F07CFADD
:101680001FBD10B5FFF7CEFF002024490877886101
:101690004877AFF2830008620120486100211F48AB
:1016A00080F84010C16380F84110AFF297014164A7
:1016B00001218163002180F86410016680F86510C3
:1016C000AFF2AB0181660121C165002180F888106D
:1016D000C0F88410C0F88410AFF2BF01C0F88C10BD
:1016E0000121C0F88010002180F8AC10C0F8A810CB
:1016F00080F8AD10AFF2D701C0F8B0100121C0F8EA
:10170000A41010BD10B50121880701F058FE18B1D2
:101710000121880701F070FE10BD0000FC020020CE
:1017200010B5012000F02CFC944AA2F10801081D1C
:1017300004F010FF002425E0904A0832911E881E14
:1017400002F06DFC8D480C38D0ED090AB0F910009C
:1017500000EE100AB8EEC00A30EE800A87480C3856
:1017600080ED090AD0ED0B0AB0F9140000EE100A62
:10177000B8EEC00A30EE800A80480C3880ED0B0AC3
:10178000601C84B2FA2CD7DB7C480C3890ED090A37
:10179000DFED7B0A80EE201A80ED091A90ED0B0A2E
:1017A000DFED770A80EE201A80ED0B1A10BD10B520
:1017B00003F0E3FA04F07BFE642000F0E1FBFFF7A6
:1017C000AFFF10BD4FF4407000F0BCFCFFF7C2FA51
:1017D000FFF78EFDA82000F071FB4FF4E13000F020
:1017E000FCFBFFF7E4FFFFF71DFFFEF75FFEFFF7CF
:1017F00048FF644890ED000ABDEEC00A10EE101AD2
:10180000614890ED000ABDEEC00A10EE100AFFF725
:1018100009F9B2E0FFF778F958480C38D0ED010A21
:10182000B0EE600AFFF78AFD564890ED000ABDEE63
:10183000C00A10EE101A544890ED000ABDEEC00A1E
:1018400010EE100AFEF744FF00EE100AB8EEC00AD0
:101850004E4880ED000A49480C38B0F9100001EEFE
:10186000100AB8EEC11AF0EE410A44480C3890ED67
:10187000011AB0EE410AFEF7C5FE4549086041482D
:1018800090ED000ABDEEC00A10EE101A3E4890ED31
:10189000000ABDEEC00A10EE100AFEF7BDFF3D497A
:1018A00008603B4890ED000AB8EEC00A0846D0ED4B
:1018B000000AF8EEE00AB2EE0E1A00EE810A324893
:1018C00080ED000A324890ED000AB8EEC00A0846E2
:1018D000D0ED000AF8EEE00AB2EE0E1A00EEC10AF0
:1018E000284880ED000AFFF7CFF8264890ED000A5F
:1018F000BDEEC00A10EE101A234890ED000ABDEEAE
:10190000C00A10EE100AFFF78DF81C480838FEF7E1
:10191000E4FD1C4890ED000ABDEEC00A10EE101A5E
:10192000194890ED000ABDEEC00A10EE100AFFF74C
:10193000B5F9194B194A1A491A48FFF779FB1648A5
:1019400090ED000ABDEEC00A10EE103A134890ED7B
:10195000000ABDEEC00A10EE102A114890ED000AF0
:10196000BDEEC00A10EE101A0E4890ED000ABDEE52
:10197000C00A10EE100A00F09CF84BE7BC030020F0
:1019800000007A431C00002018000020E80000201E
:10199000240000202C000020080100200401002069
:1019A00000010020FC00002070B504460D462946C9
:1019B000204600F09BFE00BF8021204600F046FF3D
:1019C0000028F9D070BD2DE9F04107460D461646B6
:1019D000002405E0295D3846FFF7E6FF601CC4B22D
:1019E000B442F7DB00BF4021384600F02FFF00284B
:1019F000F9D0BDE8F081F3B589B0002400250027B7
:101A00000026AA222146641C01A84254FF22214636
:101A1000641C4254F1222146641C4254082221468F
:101A2000641C42549DF824202146641C42549DF8B5
:101A300025202146641C42549DF826202146641C22
:101A400042549DF827202146641C42549DF82820CA
:101A50002146641C42549DF829202146641C4254AE
:101A60009DF82A202146641C42549DF82B202146D3
:101A7000641C425400BF07E001A8805D2844C5B241
:101A80007819C7B2701CC6B29DF80700001DB0429D
:101A9000F2DC2046611C8CB201A90D542046611C69
:101AA0008CB201A90F5422465148FFF78CFF0BB0AE
:101AB000F0BDFFB58DB00024002500270026AA2226
:101AC0002146641C0DF80120FF222146641C0DF8FC
:101AD0000120F1222146641C0DF80120102221462C
:101AE000641C0DF801209DF834202146641C0DF87B
:101AF00001209DF835202146641C0DF801209DF839
:101B000036202146641C0DF801209DF8372021461F
:101B1000641C0DF801209DF838202146641C0DF846
:101B200001209DF839202146641C0DF801209DF804
:101B30003A202146641C0DF801209DF83B202146E7
:101B4000641C0DF801209DF83C202146641C0DF812
:101B500001209DF83D202146641C0DF801209DF8D0
:101B60003E202146641C0DF801209DF83F202046B0
:101B7000611C8CB20DF800209DF840202046611CAD
:101B80008CB20DF800209DF841202046611C8CB2DB
:101B90000DF800209DF842202046611C8CB20DF803
:101BA00000209DF843202046611C8CB20DF80020D7
:101BB00000BF07E01DF806002844C5B27819C7B277
:101BC000701CC6B29DF80300001DB042F2DC204636
:101BD000611C8CB20DF800502046611C8CB20DF8CF
:101BE0000070224669460248FFF7EDFE11B0F0BDD5
:101BF000001001409D4890ED001A70EEC11A9C48FB
:101C000090ED002A9B4890ED001A01EE821A80EDBB
:101C1000001A994890ED011A9848D0ED001A31EE5B
:101C2000C11A9548D0ED021A31EE611A944880ED40
:101C3000001A914890ED031AB1EE411A904880EDD8
:101C4000011A8D4890ED031AB1EE411A8C4880EDCF
:101C5000021A8C4890ED001A894880ED031A8648D4
:101C600090ED001A8648D0ED001A814890ED002AC8
:101C700001EE821A804880ED001A90ED011A80482A
:101C8000D0ED011A7A4890ED002A01EE821A7A48C6
:101C900080ED011A90ED021A7948D0ED021A7448CD
:101CA00090ED002A01EE821A734880ED021A90ED41
:101CB000031A7348D0ED031A6D4890ED002A01EE27
:101CC000821A6D4880ED031A6A4890ED001A30EED2
:101CD000411A6D4880ED001A6748D0ED001A6B4834
:101CE000007801EE100AB8EE411A21EE811A684818
:101CF00080ED001A6048D0ED021A6448007801EEC9
:101D0000100AB8EE411A21EE811A624880ED001ADD
:101D1000614890ED001A5D48007801EE900AF8EEF7
:101D2000611A5B4890ED002A01EE821A5B4880ED53
:101D3000001A574890ED001A5848D0ED001A81EE6D
:101D4000212A574880ED002A524890ED001A534846
:101D5000D0ED001A81EE212A524880ED002A4C482D
:101D600090ED001A504880ED001A4348D0ED011A5A
:101D70004648007801EE100AB8EE411A21EE811AA9
:101D80004A4880ED001A3C4890ED001A4448D0EDD6
:101D9000001A454890ED002A01EEC21A364880ED3F
:101DA000001A90ED011A3E48D0ED001A3F4890ED20
:101DB000002A01EEC21A304880ED011A90ED021A95
:101DC0003848D0ED001A384890ED002A01EEC21ACA
:101DD000294880ED021A90ED031A3248D0ED001A1E
:101DE000324890ED002A01EEC21A234880ED031A12
:101DF000204890ED001A2A48D0ED001A224890EDB4
:101E0000002A01EE821A1B4880ED001A174890ED57
:101E1000001A2448D0ED001A1B4890ED002A01EE6C
:101E2000821A124880ED001A90ED001A30EEC11AA5
:101E30001F4880ED001A70471E4890ED001AF7EE1B
:101E4000001A71EEC11A0B4890ED001A9FED1A2A84
:101E500000EE821A21EE811A1648D0ED001A01EE2A
:101E6000801A044880ED001A7047000038010020F5
:101E7000300100201C0100205C0100202401002012
:101E8000EC030020280100203C0100203401002048
:101E900040010020440100202C01002048010020C6
:101EA0004C01002050010020540100205801002066
:101EB00020010020180100200AD7A33B10B50446DA
:101EC0006FF0040000F090F9E11704EB5171C1F3D9
:101ED000C701394A11701046007800EB4001C1EB90
:101EE000C0104FF6FF7101EAC0003449088010BDF0
:101EF0000146314A12784A434FF0E0235A610022EA
:101F00009A611A46126942F001021A6100BF4FF04D
:101F1000E022106900F001021AB100F48032002AB8
:101F2000F5D04FF0E022126922F001024FF0E023D9
:101F30001A6100229A6170470146204A12884A437A
:101F40004FF0E0235A6100229A611A46126942F06A
:101F500001021A6100BF4FF0E022106900F0010297
:101F60001AB100F48032002AF5D04FF0E022126955
:101F700022F001024FF0E0231A6100229A617047BB
:101F800070B504464FF4077094FBF0F0C6B24FF4FE
:101F9000077094FBF0F100FB114085B205E04FF4AF
:101FA0000770FFF7C9FF701EC6B2002EF7D115B13A
:101FB0002846FFF7C1FF70BD6C0100206E010020B4
:101FC00000BF704700BF4C4A128802F04002002A4E
:101FD000F9D0C2B2484B9A80704710B588B0044619
:101FE0000121084601F008FD0121102001F05EFDED
:101FF00007220921414800F026FA07220A213F481A
:1020000000F021FA4FF4C060069002208DF81C0009
:102010008DF81D0000208DF81E0001208DF81F0096
:1020200006A9364800F084F902940020ADF80C00AF
:10203000ADF80E00ADF81000ADF814000C20ADF8AE
:10204000120002A92C4800F09EFA01212A4800F053
:1020500022FB012240F22551274800F0D2FB252027
:102060008DF8040003208DF8050000208DF806008F
:1020700001208DF8070001A800F069F808B010BD34
:1020800070B5002540F225511B4800F0F5FB0028F3
:1020900031D0194800F02EFBC4B21948807828BB13
:1020A000FF2C03D101201649087024E0F02C06D142
:1020B0001348007801281ED1114948701BE01048D0
:1020C0004078012817D1FE2C02D10D49887012E00A
:1020D0000DB90B48C470012D01D109488460022D4F
:1020E00001D10748C460681CC5B204E0FF2C02D1CE
:1020F00000200349887070BD0010014000000240BC
:10210000C40400200948804709480047FEE7FEE76D
:10211000FEE7FEE7FEE7FEE7FEE7FEE7FEE7FEE797
:1021200004480549054A064B70470000790300083A
:102130008901000848050020480B002048070020BE
:102140004807002032490143324A1160704770B598
:10215000002100230F22C4781CB32E4C246804F401
:10216000E064C4F5E064C4F30721C1F10404E3B200
:102170000A4144789C40E1B28478144021430C0722
:10218000210E254C05786155047804F01F050124C3
:10219000AC4005786D11AD0005F1E025C5F80041B2
:1021A00009E0047804F01F050124AC401B4D0678BB
:1021B000761145F8264070BD194A0A400243154B76
:1021C0001B1F1A60704739B1124A121D1268024370
:1021D000104B1B1D1A6006E00E4A121D1268824346
:1021E0000C4B1B1D1A607047042808D14FF0E021EA
:1021F000096941F004014FF0E022116107E04FF05E
:10220000E021096921F004014FF0E02211617047DB
:102210000000FA050CED00E000E400E080E100E0E1
:1022200080FFFF1F10B504469848844208D1012161
:10223000084601F04CFC0021012001F048FC76E04A
:102240009348844208D10121022001F040FC002182
:10225000022001F03CFC6AE08E48844208D1012152
:10226000042001F034FC0021042001F030FC5EE089
:102270008948844208D10121082001F028FC00216E
:10228000082001F024FC52E08448844208D1012156
:10229000102001F01CFC0021102001F018FC46E089
:1022A0007F48844208D10121202001F010FC002148
:1022B000202001F00CFC3AE07A48844208D1012148
:1022C000402001F004FC0021402001F000FC2EE041
:1022D0007548844208D10121802001F0F8FB0021DB
:1022E000802001F0F4FB22E07048844208D10121F3
:1022F000801501F0ECFB0021A01501F0E8FB16E0D1
:102300006B48844208D10121401501F0E0FB002117
:10231000601501F0DCFB0AE06648844207D1012128
:10232000001501F0D4FB0021201501F0D0FB10BDF9
:10233000F0B50A4600210023002400BF3DE001253E
:1023400005FA01F3156805EA03049C4234D10568D7
:102350004F000326BE40B543056015794E00B540D9
:102360000668354305601579012D02D01579022DD7
:1023700016D185684F000326BE40B5438560557968
:102380004E00B540866835438560456801268E401D
:10239000B5434560456896798E40B6B23543456091
:1023A000C5684F000326BE40B543C560D5794E00D1
:1023B000B540C6683543C560491C1029BFD3F0BD80
:1023C0004FF6FF7101600021017141718171C1718E
:1023D000704708B54FF480320092009A0A43009289
:1023E000009AC261C161009AC261C2690092C26969
:1023F000009208BD0246002013690B400BB101207A
:1024000000E0002070470146086980B2704702462C
:10241000002053690B400BB1012000E00020704701
:102420000146486980B27047018370474183704715
:102430000AB1018300E041837047416170474269FE
:102440004A4042617047F0B5002300244D07ED0E6D
:1024500002FA05F3CE1000F1200555F826504E077C
:10246000F70E0F26BE40B543CF1000F1200646F808
:102470002750CE1000F1200555F8265045EA0304F8
:10248000CE1000F1200545F82640F0BD00000240C6
:102490000004024000080240000C0240001002400C
:1024A0000014024000180240001C024000200240BC
:1024B000002402400028024010B50446FA48844235
:1024C00008D10121102001F046FB0021102001F06D
:1024D00042FB57E0F548844209D10121480401F04C
:1024E00029FB00214FF4003001F024FB4AE0F048C2
:1024F000844209D10121880401F01CFB00214FF422
:10250000802001F017FB3DE0EA48844209D1012117
:10251000C80401F00FFB00214FF4002001F00AFB7A
:1025200030E0E548844209D10121080501F002FBB1
:1025300000214FF4801001F0FDFA23E0DF488442CF
:1025400008D10121202001F006FB0021202001F00C
:1025500002FB17E0DA48844209D10121880701F023
:10256000E9FA00214FF0804001F0E4FA0AE0D54892
:10257000844207D10121400501F0DCFA0021600509
:1025800001F0D8FA10BD2DE9FF4705460E4600249C
:10259000A14600BFA046B08900B100BF2C8A24F438
:1025A0004054F08804432C82AC8941F20C6084438F
:1025B000B08831890843718908430443AC81AC8AEF
:1025C00024F44074B0890443AC82684601F043F9B6
:1025D000B548854202D0B948854202D1DDF80C9059
:1025E00001E0DDF80890A88900F4004040B109EB53
:1025F000C90000EB091031684900B0FBF1F707E0B2
:1026000009EBC90000EB091031688900B0FBF1F754
:102610006420B7FBF0F004012009642101FB10786D
:10262000A88900F4004040B1322000EBC800B0FBA4
:10263000F1F000F00700044308E0322000EB08103E
:102640006421B0FBF1F000F00F0004432C81BDE8E1
:10265000FF874FF41651016000218180C180018104
:102660000C21418100218181704710B50246002074
:10267000108A20F470600B884C8823438C88234395
:10268000CC8823431843108210BD00210180418073
:102690008180C180704721B1828942F400528281D9
:1026A00004E082894DF6FF731A4082817047028BE5
:1026B00002F47F420283028B0A430283704721B1F6
:1026C000828942F40042828103E08289C2F30E02D1
:1026D0008281704721B1828A42F40062828204E0E2
:1026E000828A4FF2FF731A4082827047C1F3080258
:1026F0008280704701468888C0F308007047028ACC
:102700004FF6F0731A400282028A0A43028270472F
:1027100021B1828942F00202828104E082894FF66F
:10272000FD731A408281704782894FF2FF731A400D
:10273000828182890A4382817047028A4FF6DF7361
:102740001A400282028A0A430282704721B1028A39
:1027500042F48042028204E0028A4BF6FF731A4080
:1027600002827047818941F001018181704721B166
:10277000828A42F00802828204E0828A4FF6F7736E
:102780001A4082827047028BD2B20283028B42EAE5
:1027900001220283704721B1828A42F020028282A4
:1027A00004E0828A4FF6DF731A408282704721B1BB
:1027B000828A42F01002828204E0828A4FF6EF732E
:1027C0001A4082827047828A4FF6FB731A408282D7
:1027D000828A0A438282704721B1828A42F00202D1
:1027E000828204E0828A4FF6FD731A40828270472B
:1027F0001AB1838A0B43838202E0838A8B438382EC
:102800007047F0B50346002400260025002040F65E
:102810006A17B94200D100BF1846C1F3421401F053
:102820001F06012707FA06F5012C01D10C3004E040
:10283000022C01D1103000E014301AB107682F4388
:10284000076002E00768AF430760F0BD0246002062
:10285000B1F5007F00D100BF13880B400BB1012000
:1028600000E00020704701F40072B2F5007F00D153
:1028700000BFCA430280704770B50246002400239F
:102880000025002040F66A16B14200D100BFC1F316
:10289000421501F01F03012606FA03F3012D13D19F
:1028A0009689334017E000000010014000440040CA
:1028B00000480040004C004000500040001401401F
:1028C00000780040007C0040022D02D1168A33407F
:1028D00001E0968A33400C12012606FA04F41688A9
:1028E000344013B10CB1012000E0002070BD10B5E0
:1028F0000022002340F66A14A14200D100BF0A1250
:1029000001249440A3B2DC43048010BD10B50446FA
:10291000FE48844208D10121084601F01CF900213B
:10292000012001F018F99DE0B4F1804F08D1012198
:10293000084601F0FFF80021012001F0FBF891E0CA
:10294000F348844208D10121022001F0F3F800216C
:10295000022001F0EFF885E0EE48844208D1012121
:10296000042001F0E7F80021042001F0E3F879E009
:10297000E948844208D10121082001F0DBF8002158
:10298000082001F0D7F86DE0E448844208D1012125
:10299000102001F0CFF80021102001F0CBF861E009
:1029A000DF48844208D10121202001F0C3F8002132
:1029B000202001F0BFF855E0DA48844208D1012117
:1029C000022001F0C8F80021022001F0C4F849E01B
:1029D000D548844209D10121080401F0BCF8002146
:1029E0004FF4803001F0B7F83CE0D048844209D180
:1029F0000121480401F0AFF800214FF4003001F04C
:102A0000AAF82FE0CA48844209D10121880401F0C4
:102A1000A2F800214FF4802001F09DF822E0C54883
:102A2000844208D10121402001F084F80021402097
:102A300001F080F816E0C048844208D101218020CE
:102A400001F078F80021802001F074F80AE0BB481A
:102A5000844207D10121801501F06CF80021A015F6
:102A600001F068F810BD00220288A84B98420ED0F1
:102A7000AC4B98420BD0B0F1804F08D0A44B984299
:102A800005D0A44B984202D0A34B984204D14FF6F4
:102A90008F731A404B881A43A04B984207D0A04B23
:102AA000984204D04FF6FF431A400B891A43028024
:102AB0004B68C3620B880385944B984202D0994BB4
:102AC000984201D18B7A03860123838270474FF0AD
:102AD000FF31416000210180018141808172704796
:102AE0000185828270470A46002101884FF68F7364
:102AF000194011430180704741627047C1627047BD
:102B00000146486A70470146088D704721B1028826
:102B100042F00202028004E002884FF6FD731A4080
:102B20000280704721B1028842F00402028004E072
:102B300002884FF6FB731A400280704721B1028869
:102B400042F08002028004E002884FF67F731A4050
:102B50000280704702884FF6F7731A40028002889D
:102B60000A430280704702884FF6FF431A400280F2
:102B700002880A430280704721B1028842F00102B4
:102B8000028004E002884FF6FE731A40028070470C
:102B900070B5002400220023058C4FF6FE763540E8
:102BA0000584028C8388048B4FF68F752C40B51EEC
:102BB0002C400D882C43751E2A408D892A434D8850
:102BC0002A43524DA84202D0564DA84213D14FF687
:102BD000F7752A40CD892A434FF6FB752A408D8828
:102BE0002A434FF6FF652B404FF6FF552B400D8AC9
:102BF0002B434D8A2B43838004838D684563028475
:102C000070BD70B5002400220023058C4FF6EF76CE
:102C100035400584028C8388048B48F6FF752C4070
:102C20004FF6FF452C400D884FF6FF7606EA052546
:102C30002C434FF6DF752A408D8906EA05152A4395
:102C40004D8806EA05152A43304DA84202D0354D7D
:102C5000A8421DD14FF67F752A40CD894FF6FF76E9
:102C600006EA05152A434FF6BF752A408D8806EA05
:102C700005152A434FF6FF352B404FF2FF752B40C9
:102C80000D8A06EA85052B434D8A06EA85052B4306
:102C9000838004838D688563028470BD70B50024D1
:102CA00000220023058C4FF6FF6635400584028C18
:102CB0008388848B4FF68F752C404FF6FC752C4023
:102CC0000D882C434FF6FF552A408D894FF6FF762D
:102CD00006EA05252A434D8806EA05252A430B4DB9
:102CE000A84202D00F4DA84238D14FF2FF752A40BA
:102CF000CD894FF6FF7606EA05252A434FF6FF35C4
:102D00002A408D8806EA05252A4319E00000014083
:102D10000004004000080040000C0040001000408B
:102D20000014004000040140004001400044014004
:102D30000048014000180040001C004000200040F6
:102D40004EF6FF752B404DF6FF752B400D8A06EAB7
:102D500005152B434D8A06EA05152B438380848392
:102D60008D68C563028470BD70B500220023002405
:102D7000058C4EF6FF7635400584038C8488828B63
:102D800048F6FF752A404FF6FF452A400D884FF65A
:102D9000FF7606EA05252A434DF6FF752B408D89FF
:102DA00006EA05352B434D8806EA05352B43FE4DD3
:102DB000A84202D0FD4DA84208D14BF6FF752C4029
:102DC0000D8A4FF6FF7606EA85152C4384808283B0
:102DD0008D680564038470BD00210180418081807D
:102DE00081608181C18101824182704770B5034653
:102DF000002000241846183001258D40ACB21D8CEF
:102E0000A5431D8409B108290AD100EB61000568BA
:102E10004FF68F76354005600568154305600FE075
:102E20000D1FC5F34E052844056848F6FF7635406A
:102E3000056005684FF6FF7606EA02263543056011
:102E400070BD4163704781637047C163704701641F
:102E500070470A460021018B4FF68F7319401143CA
:102E6000018370470A460021018B48F6FF73194021
:102E70004FF6FF7303EA02231943018370470A46A2
:102E80000021818B4FF68F73194011438183704766
:102E90000A460021818B48F6FF7319404FF6FF73F5
:102EA00003EA02231943818370470A460021018BFC
:102EB0004FF6F77319401143018370470A4600210A
:102EC000018B4FF2FF7319404FF6FF7303EA0223A1
:102ED0001943018370470A460021818B4FF6F7732F
:102EE00019401143818370470A460021818B4FF2BC
:102EF000FF7319404FF6FF7303EA022319438183DE
:102F000070470A460021018B4FF6FB7319401143AD
:102F1000018370470A460021018B4FF6FF331940A9
:102F20004FF6FF7303EA02231943018370470A46F1
:102F30000021818B4FF6FB73194011438183704749
:102F40000A460021818B4FF6FF3319404FF6FF737D
:102F500003EA02231943818370470A460021018B4B
:102F60004FF67F7319401143018370470A460021D1
:102F7000018BC1F30E014FF6FF7303EA02231943DD
:102F8000018370470A460021818B4FF67F731940F9
:102F90001143818370470A460021818BC1F30E01E2
:102FA0004FF6FF7303EA02231943818370470A46F1
:102FB0000021018C4FF6FD731940114301847047C5
:102FC0000A460021018C4FF6F77319401143018422
:102FD00070470A460021018C4FF6DF7319404FF607
:102FE000FF7303EA02131943018470470A46002164
:102FF000018C4FF67F7319404FF6FF7303EA0213FB
:103000001943018470470A460021018C4FF6FF5393
:1030100019404FF6FF7303EA0223194301847047F6
:103020000A460021018C4FF2FF7319404FF6FF73DF
:1030300003EA02231943018470470A460021018CE8
:103040004DF6FF7319404FF6FF7303EA023319433D
:103050000184704730B5002301248C40A3B2048C56
:103060009C430484048C02FA01F5ADB22C43048421
:1030700030BD30B5002304248C40A3B2048C9C43A3
:103080000484048C02FA01F5ADB22C43048430BDF3
:10309000828B4FF2FF331A408283828B4FF6FF738D
:1030A00003EA01231A4382837047F0B50C461546A4
:1030B000002100220026078C4EF6FF7C07EA0C0751
:1030C0000784818B028C4FF6FF7707EA043640F6BF
:1030D000FF4739404FF6FF7707EA052739434FF698
:1030E000FF7707EA0337394345F6FF773A4046F45E
:1030F00080573A4381830284F0BD828B4FF6F3738D
:103100001A408283828B0A4382837047F0B50C4653
:103110001546002100220026078C4FF6FF6C07EAB7
:103120000C070784818B028C4FF6FF7707EA042691
:103130004FF60C7739404FF6FF7707EA03172F4316
:1031400039434FF2FF573A4046F480773A43818340
:103150000284F0BD028B4FF2FF331A400283028BD0
:103160004FF6FF7303EA01231A4302837047F0B559
:103170000C461546002100220026078C4FF6EF7CF6
:1031800007EA0C070784018B028C4FF6FF7707EAEA
:10319000041640F6FF4739404FF6FF7707EA03373A
:1031A00039434FF6FF7703E000000140000401407F
:1031B00007EA052739434FF65F773A4046F0100794
:1031C0003A4301830284F0BD028B4FF6F3731A4039
:1031D0000283028B0A4302837047F0B50C46154602
:1031E00000210022068C4FF6FE773E400684018BBC
:1031F000028C4FF60C7631407E1C06EA03162E43F5
:1032000031434FF6F576324044F0010632430183F4
:103210000284F0BD70B505460C46208850B923895C
:10322000A28861882846FFF7D8FFE1882846FFF783
:10323000CBFF25E0208804280AD12389A288618851
:103240002846FFF794FFE1882846FFF783FF17E041
:10325000208808280AD12389A28861882846FFF798
:1032600055FFE1882846FFF748FF09E02389A28837
:1032700061882846FFF719FFE1882846FFF708FF15
:1032800070BD002101804180012181800021C18029
:10329000018170472DE9F04105460C4600260127C3
:1032A000608808B9022600E00026A088012801D124
:1032B000022700E001272088A0B92389A28861881D
:1032C0002846FFF78AFFE1882846FFF77DFF23891C
:1032D0003A4631462846FFF74AFFE1882846FFF77D
:1032E00039FF13E02389A28861882846FFF73FFF52
:1032F000E1882846FFF72EFF23893A4631462846C3
:10330000FFF76BFFE1882846FFF75EFFBDE8F0811D
:103310000146486B70470146886B70470146C86B91
:1033200070470146086C70470A884B881A438B889F
:103330001A43CB881A430B891A434B891A438B894A
:103340001A43A0F844207047002101804180818009
:10335000C180018141818181704731B1B0F8442041
:1033600042F40042A0F8442005E0B0F84420C2F343
:103370000E02A0F84420704721B1828842F0040276
:10338000828004E082884FF6FB731A408280704787
:1033900021B1828842F00102828004E082884FF6E7
:1033A000FE731A40828070471AB183890B43838170
:1033B00002E083898B438381704781827047024694
:1033C0000020138A0B400BB1012000E00020704761
:1033D000CA430282704730B5024600200023002411
:1033E000158A05EA0103958905EA010413B10CB1B8
:1033F000012000E0002030BDCA430282704741EA4C
:103400000203A0F8483070471AB183890B438381C7
:1034100002E083898B438381704721B1828842F027
:103420000802828004E082884FF6F7731A40828097
:10343000704701894FF6F8721140018170470A46C2
:10344000002101894FF68F731940114301817047A4
:1034500030B504460D4629462046FFF7F0FF208987
:1034600040F00700208130BD2DE9F04104460D46B3
:1034700016461F46602D06D13B46012231462046A6
:10348000FFF775FE05E03B46012231462046FFF777
:10349000A4FE29462046FFF7D2FF208940F007000E
:1034A0002081BDE8F08130B50C4600210189C9B208
:1034B0004FF6FF7505EA032515432543294301818E
:1034C00030BD2DE9F04105460E46174698460024CA
:1034D00043463A4631462846FFF7E5FF2C894FF62A
:1034E000F870044044F007044FF68F70044044F035
:1034F00070042C81BDE8F081F0B504460D461646F7
:103500001F463B46324629462046FFF7CCFF20891E
:1035100040F480402081F0BD82884FF68F731A40BE
:10352000828082880A438280704702894FF6F8734E
:103530001A40028102890A430281704702894FF6CC
:103540007F731A40028102890A4302817047F0B5F5
:103550000C4615461E460021002200230189028BDD
:10356000038C4FF6F877394021434FF6FC473A4039
:1035700040F201173A434FF6DD773B404FF6FF77B5
:1035800007EA06172F433B43018102830384F0BD02
:1035900021B1828842F08002828004E082884FF666
:1035A0007F731A4082807047A0F850107047000067
:1035B00010B50121880300F0CEFA00214FF48040BD
:1035C00000F0C9FA10BD1C49086070471B49086229
:1035D000704730B500228B071C0F0F2303FA04F24B
:1035E000154B08338C1053F824309343124C083495
:1035F0008D1044F8253023468C1053F824308C0766
:10360000240F00FA04F423430B4C08348D1044F8C3
:10361000253030BD0949DC31086070470849086031
:103620007047002004492031096801F4807109B114
:10363000012000E0002070470038014000002742D0
:1036400000042742F948006840F00100F74908608B
:103650000020F64908310860F4480068F449084041
:10366000F2490860F348091D0860F348EF498431C6
:103670000860F0481038091D0860EC48006820F424
:103680008020EA4908600020E8490C310860E749D9
:103690008C31086070470021E44A921C1170114679
:1036A0000870704710B501460022002300204A111F
:1036B000012A02D1DD4C236808E0022A03D1DB4C49
:1036C0007034236802E0D94C7434236801F01F027F
:1036D000012494401C400CB1012000E0002010BDEA
:1036E00038B5002000900024002500BF3120FFF7EE
:1036F000D9FF05460098401C00900098B0F5A04FF7
:1037000001D0002DF2D03120FFF7CCFF08B1012409
:1037100000E00024204638BD01460020C34A10685E
:1037200020F0F80040EAC10010607047C34908600B
:1037300070470021BD4A703211701170012802D00B
:1037400004280AD104E00121B84A7032117005E062
:103750000521B64A7032117000E000BF00BF70470B
:10376000B7490860704770B5049C41EA821501268C
:10377000C6EB530645EA0645054345EA0465AB4EEC
:10378000361D356070BDAD4908667047820142EA5A
:103790000172A64B84331A607047A8498866704747
:1037A00010B5830143EA016343EA02739F4C8834F6
:1037B000236010BDA14908677047A049C8647047DD
:1037C00002460020994B0833186820F0EC6042EA6A
:1037D00001031843954B08331860704702460020D8
:1037E000924B0833186820F0784042EA01031843EE
:1037F0008E4B083318607047014600208B4A083210
:10380000106820F0030008431060704787480830B4
:10381000006800F00C00704701460020834A08321F
:10382000106820F0F0000843106070470146002047
:103830007E4A0832106820F4E05008431060704758
:1038400001460020794A0832106820F4604040EABE
:10385000C10010607047F0B500210022002402254D
:1038600000260223714F08373F6807F00C0121B191
:10387000042905D0082937D105E0724F076036E0EA
:10388000714F076033E0694F3F1D3F68C7F38056B3
:10389000664F3F1D3F6807F03F036EB16A4FB7FBAD
:1038A000F3F7DFF888C10CF1040CDCF800C0CCF3AE
:1038B000881C07FB0CF40CE0624FB7FBF3F7DFF852
:1038C0006CC10CF1040CDCF800C0CCF3881C07FBC5
:1038D0000CF4564F3F1D3F68C7F301477F1C7D0026
:1038E000B4FBF5F7076002E0564F076000BF00BF6A
:1038F0004E4F08373F6807F0F0010909534F7A5CD3
:103900000768D7404760494F08373F6807F4E051E0
:10391000890A4E4F7A5C4768D7408760434F083723
:103920003F6807F46041490B484F7A5C4768D740CD
:10393000C760F0BD002100F44072B2F5407F0AD1AB
:103940003A4A0832116821F4F811414A0240114301
:10395000364A08321160354A70321268C0F30B03E0
:103960001A43324B70331A60704735494439086046
:1039700070473349403908607047364908607047DE
:1039800001460020294A8C32106820F01F004A1E90
:103990001043264A8C321060704701460020234AAB
:1039A0008C32106820F4F8504A1E40EA02201F4A68
:1039B0008C3210607047014600201C4A8C3210681F
:1039C00020F4401008431060704701460020174A59
:1039D0008C32106820F440000843106070470146A4
:1039E0000020124A8C32106820F4403008431060E6
:1039F000704719490860704739B10C4A3032126873
:103A000002430A4B30331A6006E0084A303212682B
:103A10008243064B30331A607047F9B1034A34329F
:103A200012680243014B34331A601CE00038024034
:103A3000FFFFF6EA1030002400300020000047426B
:103A4000800E47420024F40000127A007701002023
:103A5000FFFCFF0F5C014742E01147428F4A1268AA
:103A600082438E4B1A60704739B18C4A121D12681E
:103A700002438A4B1B1D1A6006E0884A121D126819
:103A80008243864B1B1D1A60704739B1834A0C3242
:103A900012680243814B0C331A6006E07F4A0C32F5
:103AA000126882437D4B0C331A60704739B17B4AF0
:103AB000103212680243794B10331A6006E0774ADD
:103AC000103212688243754B10331A60704739B157
:103AD000724A243A12680243704B243B1A6006E093
:103AE0006E4A243A126882436C4B243B1A6070473A
:103AF00039B16A4A203A12680243684B203B1A6087
:103B000006E0664A203A12688243644B203B1A6002
:103B1000704739B1614A1C3A126802435F4B1C3B43
:103B20001A6006E05D4A1C3A126882435B4B1C3BFC
:103B30001A60704739B1594A143A12680243574B18
:103B4000143B1A6006E0554A143A12688243534BFC
:103B5000143B1A60704739B1504A103A1268024358
:103B60004E4B103B1A6006E04C4A103A12688243F2
:103B70004A4B103B1A60704739B1484A1C321268F0
:103B80000243464B1C331A6006E0444A1C3212685A
:103B90008243424B1C331A60704739B13F4A20328E
:103BA000126802433D4B20331A6006E03B4A203244
:103BB00012688243394B20331A60704739B1374A53
:103BC000243212680243354B24331A6006E0334A2C
:103BD000243212688243314B24331A60704739B162
:103BE0002E4A2C32126802432C4B2C331A6006E00A
:103BF0002A4A2C3212688243284B2C331A607047B1
:103C000039B1264A303212680243244B30331A60ED
:103C100006E0224A303212688243204B30331A6069
:103C20007047012808D11D493C31096841F008015D
:103C30001A4A3C32116007E018493C31096821F00A
:103C40000801164A3C321160704739B1134A273ACD
:103C500012780243114B273B1A7006E00F4A273AAD
:103C6000127882430D4B273B1A7070470B48403047
:103C7000006840F080700949403108607047014693
:103C80000020064A283A12680A400AB1012000E0E2
:103C900000207047014926390870704734380240C7
:103CA000002041490860091D0860091D0860091DC0
:103CB00008603E483C4914310860704700213A4989
:103CC0008279002A3AD00A46126803689A430B4662
:103CD0001A600A1D126803689A430B1D1A60027964
:103CE00011440A6803681A430A602F4A08321268AE
:103CF00003689A432C4B08331A601A1D1268036834
:103D00009A43294B0C331A604279102A0ED11A1F9C
:103D1000126803681A43244B08331A601A1D12688C
:103D200003681A43204B0C331A600DE01E49427998
:103D300011440A6803681A430A6005E002791144D5
:103D40000A6803689A430A607047002101600171A4
:103D50000C214171002181717047134910310968AC
:103D60000143114A103211607047014600200E4A8B
:103D7000143212680A400AB1012000E000207047A6
:103D8000094914310860704701460020064A143280
:103D900012680A400AB1012000E000207047024981
:103DA0001431086070470000003C0140FFFF7F00B5
:103DB00070B505460C4600F0DBF9D02000F084FA1F
:103DC00000F017FA18B100F0F5F9012070BD28468F
:103DD00000F07AFA00F00DFA204600F075FA00F0D3
:103DE00008FA18B100F0E6F90120EFE700F0E2F977
:103DF0000020EBE770B504460025BC2C01DB012553
:103E000010E0622C01DB02250CE02A2C01DB0325EB
:103E100008E0142C01DB042504E00A2C01DB052555
:103E200000E0062529461A20FFF7C2FF70BD70B5D5
:103E30000446B4F57A7F01DD4FF47A74042C00DA7D
:103E400004244FF47A7090FBF4F0401EC5B229466A
:103E50001920FFF7ADFF0546264604EBD671C1F3E6
:103E60004F00FFF7C7FF70BD70B5044600F080F942
:103E7000D02000F029FA00F0BCF9204600F024FA26
:103E800000F0B7F900F074F9D12000F01DFA00F04D
:103E9000B0F9002000F045FA054600F08BF92846FD
:103EA00070BD10B50446E006010E1C20FFF780FF30
:103EB00010BD10B50446E006010E1B20FFF778FF89
:103EC00010BD10B500F036F980216B20FFF770FFB0
:103ED0006420FEF755F800216B20FFF769FF0320EF
:103EE000FFF7E7FF0020FFF7DCFF3220FFF79FFF1F
:103EF00000213820FFF75CFF00216A20FFF758FF00
:103F000000212320FFF754FF80213720FFF750FFC7
:103F10007520FFF7A9FF0446682C0BD101216B2007
:103F2000FFF746FF00216C20FFF742FF3220FFF72A
:103F30007EFF01E0012010BD0020FCE72DE9F041EB
:103F400006460F4614461D4600F012F9002141EACC
:103F50004601C8B200F0B8F900F04BF920B100F00A
:103F600029F90120BDE8F081384600F0ADF900F0F4
:103F700040F900F0FDF8012101EB4601C8B200F064
:103F8000A3F900F036F90DE0012C04D1002000F077
:103F9000C8F9287003E0012000F0C3F92870601E02
:103FA000C4B26D1C002CEFD100F004F90020D9E759
:103FB00010B52DED088B82B001AB022241216820A3
:103FC000FFF7BCFF9DF805009DF8041040EA0120B2
:103FD00004B2204604F0BCFD41EC1B0B9FED500BDE
:103FE00053EC102B04F020FC41EC1A0B9FED4E0B10
:103FF00053EC102B04F064FB41EC190B04F02EFB86
:1040000008EE100A9FED4A0A28EE000ABDEEC00A2B
:1040100010EE100A00B202B0BDEC088B10BD2DE905
:10402000FC4104460D4616466B4606224321682095
:10403000FFF784FF0746BFB99DF801009DF8001007
:1040400040EA012000B220809DF803009DF8021094
:1040500040EA012000B228809DF805009DF8041078
:1040600040EA012000B230803846BDE8FC812DE9ED
:10407000FC4104460D4616466B4606223B2168204D
:10408000FFF75CFF0746BFB99DF801009DF80010DF
:1040900040EA012000B220809DF803009DF8021044
:1040A00040EA012000B228809DF805009DF8041028
:1040B00040EA012000B230803846BDE8FC812DE99D
:1040C000F04105460E461746984600F051F800218B
:1040D00041EA4501C8B200F0F7F800F08AF820B1D3
:1040E00000F068F80120BDE8F081304600F0ECF8FF
:1040F00000F07FF800240CE018F8040000F0E4F869
:1041000000F077F818B100F055F80120EBE7601CDB
:10411000C4B2BC42F0DB00F04DF80020E3E7000041
:104120000000000000407540A4703D0AD7434240A3
:104130000000C8421CB501210220FFF75DFCC02031
:10414000009001208DF8040000208DF80600032067
:104150008DF8050000208DF807006946CF48FEF76E
:10416000E7F80120CE490860CE49C1F89C021CBD89
:1041700010B5CA48006820F44040C84908600846A5
:10418000006840F4804008600120C549091D0860AE
:10419000C449C1F898020420FDF7AAFE0020C049D6
:1041A000091D08600420FDF7A3FE0020BD49C1F8E9
:1041B000980210BD10B5B948006820F44040B749D6
:1041C00008600846006840F4804008600020B44958
:1041D0000860B449C1F89C020420FDF789FE012063
:1041E000AF490860AF49C1F89C020420FDF780FE8A
:1041F00010BD10B50024A948006820F44040A7492C
:1042000008600846006808600120A549091D08608B
:10421000FDF76EFE0120A349C1F89802FDF768FE84
:1042200007E0601CC4B2FA2C03DDFFF7C3FF0120D6
:1042300010BD9B487C3800680028F2D1984908607E
:1042400000BFF5E710B50020954908609348006865
:1042500020F44040914908600846006840F48040DE
:10426000086000208F49C1F89C020220FDF740FE43
:1042700001208B4908600220FDF73AFE00208949A1
:10428000C1F8980210BD10B5002085490860834828
:10429000006820F44040814908600846006840F406
:1042A0008040086001207F49C1F89C020220FDF790
:1042B0001FFE01207A4908600220FDF719FE002048
:1042C0007849C1F8980210BD70B50446734800687B
:1042D00020F44040714908600846006840F480407E
:1042E000086000206E490860002517E0E0096C496D
:1042F000091D08606006040E0220FDF7F9FD01208B
:104300006849C1F898020220FDF7F2FD00206449D7
:1043100008600220FDF7ECFD681CC5B2082DE5DB46
:1043200070BD70B5054600245C48006820F440402C
:104330005A490860084600680860002616E0002018
:10434000574908600220FDF7D3FD01205549C1F807
:1043500098026006040E52487C38006808B1601C60
:10436000C4B20120FDF7C4FD701CC6B2082EE6DB06
:1043700015B9FFF788FF01E0FFF764FF204670BD25
:1043800070B505460E460024FFF7F2FE2846FFF7FB
:104390009BFF641CFFF72DFF3046FFF795FF641C61
:1043A000FFF727FFFFF7E4FE691CC8B2FFF78CFF99
:1043B000641CFFF71EFF0020FFF7B3FF0446FFF762
:1043C000F9FE204670BD2DE9F041074688461546A6
:1043D0001E460024FFF7CCFE3846FFF775FFFFF7B7
:1043E00008FF4046FFF770FFFFF703FFFFF7C0FE2F
:1043F000791CC8B2FFF768FFFFF7FBFE00BF0DE0B6
:10440000681EA04204D00120FFF78BFF305503E067
:104410000020FFF786FF3055601CC4B2AC42EFDBD2
:10442000FFF7C8FE2046BDE8F0812DE9F041804647
:104430000D4616461F460024FFF79AFE4046FFF73A
:1044400043FFFFF7D6FE2846FFF73EFFFFF7D1FEFA
:1044500000BF06E0385DFFF737FFFFF7CAFE601CBC
:10446000C4B2B442F6DBFFF7A5FE0120BDE8F0813F
:1044700070B505460E46144631462846FFF780FFC4
:104480002070012070BD37B504460D4602AB0122F5
:1044900029462046FFF7C9FF3EBD00000004024048
:1044A000988240420080404238B50446F74890F870
:1044B0002400C0B114B10220009001E0002000905F
:1044C000F24A1268D17BF14A526810786B46012299
:1044D000FFF7F5FD10B14FF0FF3038BD9DF800102B
:1044E000EA48417423E0E948807A10B94FF0FF3080
:1044F000F3E724B1E548407C08B10020EDE714B1B2
:104500000120009001E000200090E04A1268D17B79
:10451000DE4A526810786B460122FFF7D0FD10B1D9
:104520004FF0FF30D9E79DF80010D84841740020C3
:10453000D3E738B500241FE0D4480068C07AA04211
:1045400004D0D2480068407DA04200D112E0CF499B
:10455000496808786B4601222146FFF7EFFC10B14D
:104560004FF0FF3038BD9DF800202146C8A003F071
:1045700039F800BF601CC4B2C44840680079A0424A
:10458000DADC0020EEE770B504460D46BF4800684F
:10459000C07AA04204D0BD480068407DA04202D14C
:1045A0004FF0FF3070BDB94840680079A04202DC8E
:1045B0004FF0FF30F6E7B549496808782B460122ED
:1045C0002146FFF7BBFCEDE738B50446AF4890F84D
:1045D0002300A04201D1002038BD14B1302000904A
:1045E00001E000200090A948807C20B19DF80000E7
:1045F00040F002000090A54890F8220020B19DF8FC
:10460000000040F080000090A04A1268117D9F4A8F
:10461000526810786B460122FFF751FD10B14FF040
:10462000FF30D9E7994880F823400020D4E738B517
:10463000044604F0700010B10120009005E014B1B0
:104640000020009001E040200090904A1268917C88
:104650008E4A526810786B460122FFF730FD20B178
:1046600000218A488172481E38BD9DF8000020F064
:104670004001864801730020009004F0400020B9FA
:104680009DF8000040F00400009004F0200020B9E4
:104690009DF8000040F00200009004F0100020B9E6
:1046A0009DF8000040F00100009004F0080020B9DF
:1046B0009DF8000040F038000090744A1268D17CE8
:1046C000724A526810786B460122FFF7F8FC20B15D
:1046D00000216E488172481EC6E724B1082C02D022
:1046E0000020FFF771FF69488472002101753220B4
:1046F000FDF746FC0020B7E738B504466348807CE8
:10470000A04201D1002038BD002C46D05F4A12687B
:1047100011795E4A526810786B460122FFF70EFC51
:1047200010B14FF0FF30EEE79DF8000020F02000C0
:104730000090564A12681179544A526810786B46B4
:104740000122FFF7BCFC10B14FF0FF30DBE7032084
:10475000FDF716FC022000904C4890F8220020B192
:104760009DF8000040F080000090484890F8230039
:1047700020B19DF8000040F030000090434A1268DC
:10478000117D424A526810786B460122FFF797FC70
:10479000002851D04FF0FF30B5E73C4A126811793C
:1047A0003A4A526810786B460122FFF7C7FB10B1F6
:1047B0004FF0FF30A7E73548807A00F0010028B1BC
:1047C0009DF8000040F02000009004E09DF80000FB
:1047D00020F0200000902D4A126811792B4A52686F
:1047E00010786B460122FFF76AFC10B14FF0FF30E2
:1047F00089E70320FDF7C4FB244890F8220010B19C
:104800008020009001E000200090204890F82300D4
:1048100020B19DF8000040F0300000901B4A126863
:10482000117D1A4A526810786B460122FFF747FC47
:1048300010B14FF0FF3066E714488474002062E73F
:1048400008B51248807A10B94FF0FF3008BD00203B
:1048500000900E4A1268D17B0C4A526810786B4661
:104860000122FFF72CFC10B14FF0FF30EEE7074AB2
:1048700012685179054A526810786B460122FFF799
:104880001EFC68B14FF0FF30E0E700008801002017
:10489000252335783A20252335780D0A00000000BD
:1048A000F84A12681179F74A526810786B4601226B
:1048B000FFF705FC10B14FF0FF30C7E7F14890F863
:1048C0002400002853D00C200090EE4A1268117981
:1048D000EC4A526810786B460122FFF7F0FB10B1EA
:1048E0004FF0FF30B2E73220FDF74AFBC0200090C6
:1048F000E448807A00F0010020B19DF8000040F00B
:1049000020000090DF4A12681179DE4A5268107860
:104910006B460122FFF7D3FB10B14FF0FF3095E754
:10492000D848407C10B10220009001E000200090A7
:10493000D44A1268D17BD34A526810786B46012260
:10494000FFF7BDFB10B14FF0FF307FE70020009074
:10495000CC4A12685179CB4A526810786B460122D2
:10496000FFF7ADFB002855D04FF0FF306EE7042075
:104970000090C44A12681179C24A526810786B4696
:104980000122FFF79CFB10B14FF0FF305EE7BD48FE
:10499000807C20B9BB48807A00F0010010B940202B
:1049A000009001E060200090B64A12681179B54A83
:1049B000526810786B460122FFF781FB10B14FF06F
:1049C000FF3043E73220FDF7DBFAAE48407C10B100
:1049D0000120009001E000200090AA4A1268D17BDB
:1049E000A84A526810786B460122FFF768FB10B1A5
:1049F0004FF0FF302AE7A34A12685179A14A526862
:104A00001078A04B10330122FFF759FB10B14FF083
:104A1000FF301BE7002019E770B50446002624F09C
:104A20000104984890F8240008B1002070BD954812
:104A3000807A10B94FF0FF30F8E79248057C807A11
:104A40002040904908740846007CA04202D04FF0F4
:104A5000FF3600E0002614B98A48007D18B1012015
:104A6000FFF722FD02E00020FFF71EFD3CB1FFF73B
:104A7000E7FE20B1834805744FF0FF30D6E730469B
:104A8000D4E738B504467F48807A10B94FF0FF303C
:104A900038BDBC2C02DB0120009015E0622C02DB4B
:104AA0000220009010E02A2C02DB032000900BE093
:104AB000142C02DB0420009006E00A2C02DB052007
:104AC000009001E0062000906E48C07A9DF800102A
:104AD000884201D10020DBE76A4A12689178694A6E
:104AE000526810786B460122FFF7E9FA10B14FF0D7
:104AF000FF30CDE79DF800106248C1720020C7E783
:104B000038B50446282C02DD4FF0FF3038BDDCB943
:104B10000020FFF759FD00208DF8000007208DF8D8
:104B20000100584A1268917C564A526810786B46C8
:104B30000222FFF7C4FA10B14FF0FF30E6E7002180
:104B4000504801750020E1E70120FFF73DFD2020DE
:104B50008DF80000012C06D100208DF80100052001
:104B6000FFF78FFF17E0052C06DC01208DF8010010
:104B70000520FFF786FF0EE0142C06DC02208DF8DE
:104B800001000A20FFF77DFF05E003208DF80100FA
:104B90001420FFF776FF9DF80100072101EB80103C
:104BA000C0B28DF80100374A1268917C354A5268CC
:104BB00010786B460222FFF782FA10B14FF0FF30F7
:104BC000A4E708212F48817200210173012101759A
:104BD0000020FFF721FF002098E738B50446294858
:104BE000807A10B94FF0FF3038BD264890F8240085
:104BF00010B14FF0FF30F7E72248007D50B134B1DB
:104C0000282C04DCE0B2FFF77BFF0020ECE700205B
:104C1000FFF776FF042C01DA042404E0B4F57A7F70
:104C200001DD4FF47A744FF47A7090FBF4F0401E7B
:104C3000C0B20090134A12685178124A5268107834
:104C40006B460122FFF73BFA10B14FF0FF30CBE784
:104C50009DF80000401C4FF47A7191FBF0F081B296
:104C60000848C1810146C9894810FFF70AFF0020A2
:104C7000BAE738B504460348807A28B94FF0FF30C8
:104C800038BD000088010020022C06D0042C07D07B
:104C9000082C08D0102C0CD108E0002000900BE06C
:104CA0000820009008E01020009005E018200090F7
:104CB00002E04FF0FF30E3E700BFF748407A9DF88D
:104CC0000010B0EBE10F01D10020D9E7F24A1268E1
:104CD000D179F14A526810786B460122FFF7EFF95B
:104CE00010B14FF0FF30CBE79DF80000C110EA484B
:104CF00041720020C4E738B50446E748807A10B90D
:104D00004FF0FF3038BDFA2C09D0B4F5FA7F09D046
:104D1000B4F57A7F09D0B4F5FA6F0CD108E0002021
:104D200000900BE00820009008E01020009005E0C3
:104D30001820009002E04FF0FF30E3E700BFD648B4
:104D4000007A9DF80010B0EBE10F01D10020D9E707
:104D5000D14A12689179D04A526810786B46012284
:104D6000FFF7ADF910B14FF0FF30CBE79DF8000031
:104D7000C010C94908720020C4E71CB580208DF816
:104D80000000C54A1268917CC34A526810786B468D
:104D90000122FFF794F910B14FF0FF301CBD6420E1
:104DA000FDF7EEF800208DF80000BB4A1268917CF8
:104DB000B94A526810786B460122FFF780F910B1AA
:104DC0004FF0FF30EAE7B44A1268917DB24A526868
:104DD00010786B460622FFF7B1F810B14FF0FF30A4
:104DE000DCE79DF80500C007400F9DF8031001F0B7
:104DF000010140EA41009DF8011001F0010140EA83
:104E0000010494B1012C03D10121A348C17431E004
:104E1000022C03D10021A048C1742BE021469FA0A1
:104E200002F0E0FB4FF0FF30B8E79B4A1268D17800
:104E3000994A526810786B460122FFF77FF810B14B
:104E40004FF0FF30AAE79DF8000000F00F042CB9E6
:104E50009C4802F0C7FB4FF0FF309FE7042C06D1BF
:104E600099A002F0BFFB01218B48C17402E0002130
:104E70008948C174FF2188488172FF2086490872E1
:104E8000FF2185484172C1724FF6FF71C181FF2138
:104E9000017481740121017380F82210002180F8CF
:104EA000231041750175163001604160816016382C
:104EB00080F8241080F82510C1844FF4FA60FFF7C1
:104EC0001AFF10B14FF0FF3068E70220FFF7D1FE64
:104ED00010B14FF0FF3061E72A20FFF7D2FD10B18B
:104EE0004FF0FF305AE73220FFF777FE10B14FF056
:104EF000FF3053E70020FFF78FFD10B14FF0FF3078
:104F00004CE70020FFF7F8FB10B14FF0FF3045E70A
:104F10000020FFF78CFB002040E770477CB504467B
:104F20000D465D48807A00F0700010B94FF0FF30F8
:104F30007CBD594A1268117B574A526810786B46FB
:104F40000622FEF7FBFF10B14FF0FF30F0E79DF8AF
:104F500001009DF8001040EA012000B220809DF879
:104F600003009DF8021040EA012000B260809DF825
:104F700005009DF8041040EA012000B2A08015B1A0
:104F80002846FFF7CAFF0020D2E77CB504460D464D
:104F90004148807A00F0080010B94FF0FF307CBD26
:104FA0003D4A1268517B3C4A526810786B46062293
:104FB000FEF7C4FF10B14FF0FF30F0E79DF801009D
:104FC0009DF8001040EA012000B220809DF8030007
:104FD0009DF8021040EA012000B260809DF80500B3
:104FE0009DF8041040EA012000B2A08015B12846C7
:104FF000FFF793FF0020D2E7F8B506460C46264897
:10500000807A10B94FF0FF30F8BD234A1268917BC7
:10501000214A526810786B460222FEF78FFF10B1CA
:105020004FF0FF30F0E79DF801009DF8001040EAD6
:10503000012005B214B12046FFF76FFF1648406803
:10504000B0F9080000EE100AF8EEC00A00EE105A9F
:10505000B8EEC00A70EE600A0F484068C08800EEE3
:10506000100AB8EE400A80EE801A9FED1F0A31EE5A
:10507000000ADFED1E0A20EE200ABDEEC00A86ED12
:10508000000A0020C0E710B588B004461CB94FF0F4
:10509000FF3008B010BD2BE088010020556E7375FD
:1050A00070706F7274656420736F66747761726577
:1050B0002070726F64756374207265762025642E8B
:1050C0000A000000689F000848616C662073656EE6
:1050D0007369746976697479207061727420666F7F
:1050E000756E642E0A00000000000C42000080472C
:1050F000206830B9606820B9A06810B9002008B0F5
:1051000010BDF9494968087806AB03221146FEF73D
:1051100015FF10B14FF0FF30F1E79DF8180008219E
:1051200001EB201000F00F00ADF800009DF8190011
:1051300001EB201000F00F00ADF802009DF81A00FE
:1051400001EB201000F00F00ADF8040020684100D2
:10515000BDF90000403091FBF0F000B2ADF8100056
:1051600060684100BDF90200403091FBF0F000B2F0
:10517000ADF81200A0684100BDF90400403091FB79
:10518000F0F000B2ADF81400D7494968087806ABD2
:1051900006221146FEF7D2FE10B14FF0FF30AEE707
:1051A0009DF819009DF8181040EA012000B2ADF8F2
:1051B00008009DF81B009DF81A1040EA012000B27B
:1051C000ADF80A009DF81D009DF81C1040EA012072
:1051D00000B2ADF80C00BDF81000BDF8081008448E
:1051E00000B2ADF81000BDF81200BDF80A10084476
:1051F00000B2ADF81200BDF81400BDF80C10084460
:1052000000B2ADF81400BDF81000000A8DF81800C7
:10521000BDF81000C0B28DF81900BDF81200000AE8
:105220008DF81A00BDF81200C0B28DF81B00BDF851
:105230001400000A8DF81C00BDF81400C0B28DF8EF
:105240001D00A9494968087806AB06221146FEF7F9
:1052500036FF10B14FF0FF3051E700204FE7014615
:10526000A148007A30B1012807D0022809D00328CC
:105270000FD10AE0FA2008800EE04FF4FA7008809F
:105280000AE04FF47A70088006E04FF4FA60088074
:1052900002E00020088000BF00BF002070470146E8
:1052A0009148407A30B1012807D0022808D003285D
:1052B0000CD108E0022008700BE00420087008E020
:1052C0000820087005E01020087002E04FF0FF3061
:1052D000704700BF8448C07C18B108784006000EB3
:1052E00008700020F4E701467F48C07A082817D2EA
:1052F000DFE800F01704070A0D101318BC2008801F
:1053000013E06220088010E02A2008800DE01420BD
:1053100008800AE00A20088007E00520088004E0F1
:1053200000BF00BF0020088000BF00BF0020704702
:1053300001466D4890F8240010B14FF0FF307047DF
:105340006948C08908800020F9E7014600200880EC
:10535000401E704701464FF0FF30704701466248DB
:10536000007A30B1012809D002280CD0032814D1CA
:105370000EE09FED5E0A81ED000A11E09FED5C0AF0
:1053800081ED000A0CE09FED5B0A81ED000A07E069
:105390009FED590A81ED000A02E04FF0FF3070479F
:1053A00000BF0020FBE701464F48407A30B101289A
:1053B00008D002280AD0032810D10BE04FF4804017
:1053C00008800EE041F69C7008800AE04FF480509F
:1053D000088006E04FF40060088002E04FF0FF30E4
:1053E000704700BF4048C07C10B10888401008805A
:1053F0000020F5E701463C48007C0870002070471B
:1054000001463948807A10B10120087001E000207F
:1054100008700020704738B504463348807A10B9C8
:105420004FF0FF3038BD304A1268117C2E4A526866
:1054300010786B460222FEF781FD10B14FF0FF306D
:10544000F0E79DF801009DF8001040EA012000B24D
:1054500020800020E6E72DE9FE4F07468846924669
:105460001D46DDF830B0002600241F4890F82400C7
:1054700010B1601EBDE8FE8F002028701A48807AA7
:1054800010B94FF0FF30F5E71748007C10B94FF026
:10549000FF30EFE71448007C00F0400008B1B01C7A
:1054A000C6B21148007C00F0200008B1B01CC6B2A2
:1054B0000D48007C00F0100008B1B01CC6B20A48CC
:1054C000007C00F0080008B1B01DC6B2064A1268A0
:1054D000917A054A526810786B460222FEF72EFD3B
:1054E00060B14FF0FF30C5E78801002000000343A2
:1054F0000000834233330342333383419DF801007C
:105500009DF8001040EA0129B14501DA0020B1E719
:10551000FA4840684088B9EB600F17DDF74A126817
:10552000517CF64A526810786B460122FEF706FD60
:1055300010B14FF0FF309DE79DF8000000F0100023
:1055400020B1FFF77DF96FF0010093E75046FFF7B8
:10555000E4FCEA4A1268D17AE84A526810786B464D
:105560003246FEF7EBFC10B14FF0FF3082E799FBBB
:10557000F6F0401E8BF8000000202870B4422AD0BC
:10558000DE48007C00F0080028B3601C1DF8000015
:105590001DF8041040EA012000B2A8F80000E01C49
:1055A0001DF80010A01C1DF8000041EA002000B208
:1055B000A8F80200601D1DF80010201D1DF8000055
:1055C00041EA002000B2A8F80400287840F0080062
:1055D0002870A01D84B2B44213D0C848007C00F0EB
:1055E000400070B1601C1DF800001DF8041040EA76
:1055F000012000B23880287840F040002870A01CBC
:1056000084B2B44213D0BD48007C00F0200070B1D9
:10561000601C1DF800001DF8041040EA012000B2D3
:105620007880287840F020002870A01C84B2B44212
:1056300013D0B248007C00F0100070B1601C1DF85F
:1056400000001DF8041040EA012000B2B88028785C
:1056500040F010002870A01C84B200200AE7F8B5C2
:1056600004460F461646A54890F8240010B94FF09E
:10567000FF30F8BDA148807A10B94FF0FF30F8E74D
:105680009E4A1268917A9D4A526810786B460222AF
:10569000FEF754FC10B14FF0FF30EAE79DF801002F
:1056A0009DF8001040EA0125A54203DA0020307081
:1056B000401EDEE7914840684088B5EB600F17DD7B
:1056C0008E4A1268517C8D4A526810786B460122CE
:1056D000FEF734FC10B14FF0FF30CAE79DF8000030
:1056E00000F0100020B1FFF7ABF86FF00100C0E749
:1056F000E2B2824B1B68D97A804B5B6818783B46D4
:10570000FEF71CFC10B14FF0FF30B2E795FBF4F050
:10571000401E30700020ACE70146784880F8221027
:10572000002070477CB5054674494968087801AB8C
:1057300004220D21FEF702FC08B107207CBD9DF874
:105740000700C0F301109DF8041001F0E00140EAE9
:10575000E1008DF800009DF80700C0F381009DF87E
:10576000051001F0E00140EAE1008DF801009DF82C
:10577000070000F003009DF8061001F0E00140EA88
:10578000E1008DF80200002427E01DF8040030B984
:105790009FED5B0A05EB840080ED000A1BE09FEDA6
:1057A000590A05EB840080ED000A0BE005EB84004C
:1057B00090ED000ADFED540A20EE200A05EB84008C
:1057C00080ED000A1DF80400401EC0B20DF8040070
:1057D0000028EBD100BF601CC4B2032CD5DB002035
:1057E000ACE7F0B52DED028B83B006460F460025E1
:1057F0006846FFF797FF002447E056F8241057F853
:105800002420881A002801DB014600E0414200EE16
:10581000101AB8EEC00ADFED3D0A80EE208A684615
:1058200000EB840090ED000AB5EEC00AF1EE10FA2C
:1058300018D0684600EB8400D0ED000A88EE200AFC
:10584000F7EE000A70EE608AB0EEE80A3048D0ED5C
:10585000090AB4EEE00AF1EE10FA15DD0120A040CD
:10586000054311E02A4890ED070AB4EEC80AF1EEAC
:1058700010FA06DC90ED080AB4EEC80AF1EE10FA50
:1058800002D20120A0400543641C032CB5DB28464E
:1058900003B0BDEC028BF0BDF0B52DED048B81B0F3
:1058A00006460F4600251549496808786B460322CD
:1058B0000D21FEF743FB20B1072001B0BDEC048BA6
:1058C000F0BD9DF8000000F01F008DF800009DF86D
:1058D000010000F01F008DF801009DF8020000F0AB
:1058E0001F008DF80200002461E056F8241057F8DC
:1058F0002420881A00280DDB01460CE088010020D6
:10590000000000007B14AE3E1D5A843F000080471B
:1059100020920008414200EE101AB8EEC00A5FED76
:10592000050A80EE208A1DF8040068B3FE4890ED59
:10593000000AB8EE400ADFEDFD0A80EE801AF0EEB4
:10594000418A05E09FEDFA0A28EE800AF0EE408ACF
:105950001DF80400401EC0B20DF804000028F1D16B
:1059600088EE280AF7EE000A30EE609AB0EEC90A17
:10597000ED48D0ED060AB4EEE00AF1EE10FA15DDBE
:105980000120A040054311E0E74890ED040AB4EE81
:10599000C80AF1EE10FA06DC90ED050AB4EEC80A6A
:1059A000F1EE10FA02D20120A0400543641C032C42
:1059B0009BDB284681E72DE9F04F87B005460C4672
:1059C000914601208DF8100000208DF81100D94A71
:1059D0001268917CD74A5268107804AB0222FEF715
:1059E0006EFB20B14FF0FF3007B0BDE8F08FC8204C
:1059F000FCF7C6FA00208DF81000CE4A1268D17B61
:105A0000CC4A5268107804AB0122FEF758FB10B163
:105A10004FF0FF30E8E7C74A12685179C54A52682B
:105A2000107804AB0122FEF74AFB10B14FF0FF30B3
:105A3000DAE7C04A1268917CBE4A5268107804AB1B
:105A40000122FEF73CFB10B14FF0FF30CCE7B94A22
:105A50001268D17DB74A5268107804AB0122FEF774
:105A60002EFB10B14FF0FF30BEE7B24A1268117939
:105A7000B04A5268107804AB0122FEF720FB10B147
:105A80004FF0FF30B0E70C208DF81000A94A1268E3
:105A90001179A84A5268107804AB0122FEF70FFB77
:105AA00010B14FF0FF309FE70F20FCF769FAA148D3
:105AB000806A407A8DF810009E4A126891789D4A5B
:105AC0005268107804AB0122FEF7F9FA10B14FF0DA
:105AD000FF3089E79748806A007A8DF81000954A70
